:10800000017E1163C0E0C0F0F5F054F0F590D2901D
:1080100000C290E5F0C454F0F590D29000C2907583
:1080200090F0D0F0D0E022C0E0C0F01163F5F05441
:10803000F04402F590D29000C290E5F0C454F044B0
:1080400002F590D29000C2907590F0D0F0D0E0226E
:10805000C29074281102740E110274061102740188
:10806000110222C0E07590F4D290E590C290F5F034
:10807000D290E590C290E5F020E7EAD0E0221150DE
:10808000C0E0C0F07F079080A0E493A31127DFF940
:1080900074C011027F09908100E493A31127DFF9D6
:0780A0004D5941474B4F56BB
:098100004E45434C55444F5641D5
:0282000080FEFE
:00000001FF
